:020000040800F2
:10000000680600208901000801030008FD020008BD
:10001000FF020008430200082D0400080000000051
:1000200000000000000000000000000021030008A4
:10003000450200080000000003030008D90300087F
:10004000A3010008A3010008A3010008A301000800
:10005000A3010008A3010008A3010008A3010008F0
:10006000A3010008A3010008A3010008A3010008E0
:10007000A3010008A3010008A3010008A3010008D0
:10008000A3010008A3010008A3010008A3010008C0
:10009000A3010008A3010008A3010008A3010008B0
:1000A000A3010008A3010008A3010008A3010008A0
:1000B000A3010008A3010008A3010008A301000890
:1000C000A3010008A3010008A3010008A301000880
:1000D000A3010008A3010008A3010008A301000870
:1000E000A3010008A3010008A301000800F002F822
:1000F00000F03AF80AA090E8000C82448344AAF188
:100100000107DA4501D100F02FF8AFF2090EBAE885
:100110000F0013F0010F18BFFB1A43F0010318473B
:10012000B8030000D8030000103A24BF78C878C193
:10013000FAD8520724BF30C830C144BF04680C60ED
:10014000704700000023002400250026103A28BF35
:1001500078C1FBD8520728BF30C148BF0B60704739
:100160001FB51FBD10B510BD00F031F81146FFF7E7
:10017000F7FF00F05DF900F04FF803B4FFF7F2FF6E
:1001800003BC00F057F800000948804709480047C1
:10019000FEE7FEE7FEE7FEE7FEE7FEE7FEE7FEE737
:1001A000FEE7FEE704480549054A064B7047000094
:1001B000DD030008ED00000868000020680600204C
:1001C000680200206802002070477047704775463B
:1001D00000F02CF8AE4605006946534620F00700B3
:1001E000854618B020B5FFF7DDFFBDE820404FF091
:1001F00000064FF000074FF000084FF0000B21F011
:100200000701AC46ACE8C009ACE8C009ACE8C009DD
:10021000ACE8C0098D46704710B50446AFF30080C6
:100220002046BDE81040FFF7A8BF00000048704717
:100230000400002001491820ABBEFEE726000200A2
:100240007047FEE77047002100E0491C8142FCD363
:1002500070472DE9F0410022CC7804F00F03E4064A
:1002600001D58C7823430C784FF00F0714F0FF0F63
:100270004FF0010C1CD005680CFA02F40E882640E1
:10028000A64211D1960007FA06F825EA080503FAF6
:1002900006F848EA0505CE78282E02D0482E02D06E
:1002A00002E0446100E00461521C082AE4D30560C6
:1002B0000A88FF2A1ED94568002202F108060CFAB6
:1002C00006F40E882640A64210D1960007FA06F8DA
:1002D00025EA080503FA06F848EA0505CE78282E2F
:1002E00000D14461CE78482E00D10461521C082A06
:1002F000E3D34560BDE8F081C1607047FEE7FEE7EB
:1003000070477047054A002903D091690143916104
:10031000704791698143916170470000001002406D
:10032000704700F001B800000CB500220192009265
:100330002748016841F4803101604FF4A0630168EF
:1003400001F4003100910199491C0191009911B902
:1003500001999942F3D10168890302D501210091E5
:1003600000E000920099012930D11A490A6842F050
:1003700010020A600A6822F007020A600A6842F066
:1003800002020A604168416041684160416841F48D
:1003900080614160416821F47C114160416841F411
:1003A000E8114160016841F08071016001688901D4
:1003B000FCD5416821F003014160416841F0020130
:1003C00041604168C1F381010229FAD10CBD0000EE
:1003D00000100240002002407047000010B50F4896
:1003E000016841F00101016041680D4A114041601E
:1003F00001680C4A11400160016821F4802101600C
:10040000416821F4FE0141604FF41F018160FFF754
:1004100088FF05494FF00060086010BD00100240E1
:100420000000FFF8FFFFF6FE08ED00E0FEE7000029
:1004300008B501210820FFF765FF40F2FF30ADF855
:10044000000010208DF8030003208DF80200204DDD
:1004500069462846FFF7FDFE1E4C4FF6FE7B4FF621
:10046000FF78002641F2707741F28839A4F800B095
:10047000668021882846FFF73FFF3846FFF7E3FEF6
:10048000208808EA400020806088401C80B260809C
:100490000A28EED34846FFF7D6FE4FF47E40208070
:1004A00066804FF4004A21882846FFF725FF38462A
:1004B000FFF7C9FE20880AEB500020806088401CAE
:1004C00080B260800A28EED34846FFF7BCFECDE735
:1004D000000C014000000020F8040008000000208B
:1004E0000400000028010008FC04000804000020AB
:0C04F00064060000440100080000000049
:040000050800018965
:00000001FF
